:020000040800F2
:100000000028002021020008710200087102000887
:10001000710200087102000871020008000000006F
:100020000000000000000000000000007102000855
:10003000710200080000000071020008710200084F
:1000400071020008710200087102000871020008C4
:100050007102000871020008010600082506000868
:10006000490600086D0600089106000871020008A4
:100070007102000871020008710200087102000894
:100080007102000871020008710200087102000884
:10009000710200087102000871020008B50600082C
:1000A0007102000871020008710200087102000864
:1000B0007102000871020008710200087102000854
:1000C000710200087102000871020008E5090008C9
:1000D000010A00081D0A0008310A0008450A000844
:1000E0005D070008710200080000000071020008AE
:1000F0007102000871020008710200087102000814
:100100007102000871020008710200087102000803
:1001100071020008710200087102000871020008F3
:1001200071020008710200087102000871020008E3
:1001300010B5054C237833B9044B13B10448AFF321
:1001400000800123237010BD00000020000000008B
:10015000A00A000808B5034B1BB103490348AFF3DD
:10016000008008BD0000000004000020A00A000874
:1001700080B400AF0A4B9B69094A43F004039361C2
:10018000074B9B69064A43F008039361044B9B6944
:10019000034A43F00103936100BFBD4680BC704732
:1001A0000010024080B400AF034B01221A6000BF70
:1001B000BD4680BC704700BF1C00002080B586B0E3
:1001C00000AFFFF7D5FF124A3B1D07CA83E80700BF
:1001D00000233B740F4B7B6101237B743B1D18464E
:1001E00000F002FA0C4B01221A6000BF00BF00BFF2
:1001F0004FF0FF03094A136000BF00BF00BF064B6A
:100200001B68002BFBD0044B00221A60F7E700BFED
:10021000B80A0008A50100081C00002020000020EA
:100220000D488546AFF300800C480D490D4A002368
:1002300002E0D458C4500433C4188C42F9D30A4A9B
:100240000A4C002301E013600432A242FBD300F009
:1002500003FCFFF7B3FFFEE70028002000000020AA
:1002600000000020CC0A0008000000206C000020E4
:10027000FEE7000080B483B000AF0346FB80FB883C
:100280000F2B54D801A252F823F000BFCD02000872
:10029000DB020008E9020008F70200080503000875
:1002A00013030008130300081303000813030008D6
:1002B000130300082103000821030008210300089C
:1002C0002103000821030008210300081A4B1B68C2
:1002D000194A43F04003136029E0174B1B68164A84
:1002E00043F08003136022E0134B1B68124A43F46F
:1002F000807313601BE0104B1B680F4A43F40073BC
:10030000136014E00C4B1B680B4A43F480631360CA
:100310000DE0094B1B68084A43F40003136006E034
:10032000064B1B68054A43F48073136000BF00BF8F
:100330000C37BD4680BC704700E100E004E100E0FE
:1003400080B483B000AF0346FB80FB880F2B54D8EA
:1003500001A252F823F000BF99030008A703000888
:10036000B5030008C3030008D1030008DF03000839
:10037000DF030008DF030008DF030008DF030008D5
:10038000ED030008ED030008ED030008ED0300088D
:10039000ED030008ED0300081A4B1B68194A43F0EF
:1003A0004003136029E0174B1B68164A43F0800393
:1003B000136022E0134B1B68124A43F480731360EE
:1003C0001BE0104B1B680F4A43F40073136014E0EA
:1003D0000C4B1B680B4A43F4806313600DE00A4B1F
:1003E0001B68094A43F40003136006E0074B1B68CF
:1003F000064A43F48073136000BF00BF0C37BD464C
:1004000080BC704780E100E000E100E084E100E0B2
:1004100080B584B000AF78607B681B893B81012385
:10042000BB727B685B6807F108021146184600F052
:100430005AFA7B681B889B089BB2FB737B681B88FE
:10044000DBB203F00303DBB29B00BB735F4AFB7BB1
:10045000023352F82320BB7B0F2101FA03F3DB4365
:1004600018465A49FB7B0240023341F82320574A81
:10047000FB7B023352F823207B685B6854498B4234
:1004800016D07B685B6853498B420FD07B685B68F2
:1004900051498B4208D07B685B6850498B4201D13F
:1004A000032306E0002304E0022302E0012300E02E
:1004B0000023B97B8B4018464449FB7B024302333F
:1004C00041F82320464B9B687A6812881146012226
:1004D0008A40D2431146424A0B409360404BDB684E
:1004E0007A681288114601228A40D24311463C4A5A
:1004F0000B40D3607B681B7B002B0BD1384B9B6878
:100500007A681288114601228A401146344A0B4308
:10051000936029E07B681B7B012B0BD1304BDB68A0
:100520007A681288114601228A4011462C4A0B43F0
:10053000D36019E07B681B7B022B15D1284B9B688D
:100540007A681288114601228A401146244A0B43D8
:100550009360234BDB687A681288114601228A4037
:1005600011461F4A0B43D3607B681B8819467B6882
:100570001B691C4A42F821307B685B7B012B10D140
:10058000174B1B687A681288114601228A4011466F
:10059000134A0B4313607B681B881846FFF76AFEFB
:1005A00010E00F4B1B687A681288114601228A40BE
:1005B000D24311460A4A0B4013607B681B881846D9
:1005C000FFF7BEFE00BF1037BD4680BD00000140F2
:1005D00000080140000C01400010014000140140DF
:1005E000000401403000002080B582B000AF786088
:1005F0007868FFF70DFF00BF0837BD4680BD0000DB
:1006000080B500AF054B5B69044A43F001035361B9
:10061000034B1B68984700BF80BD00BF000401402A
:100620003000002080B500AF054B5B69044A43F001
:1006300002035361034B5B68984700BF80BD00BF56
:10064000000401403000002080B500AF054B5B691D
:10065000044A43F004035361034B9B68984700BF6F
:1006600080BD00BF000401403000002080B500AF15
:10067000054B5B69044A43F008035361034BDB6895
:10068000984700BF80BD00BF00040140300000203B
:1006900080B500AF054B5B69044A43F0100353611A
:1006A000034B1B69984700BF80BD00BF0004014099
:1006B0003000002080B500AF264B5B6903F02003BB
:1006C000002B08D0234B5B69224A43F0200353617F
:1006D000214B5B6998471F4B5B6903F04003002B7C
:1006E00008D01C4B5B691B4A43F0400353611A4B13
:1006F0009B699847174B5B6903F08003002B08D078
:10070000144B5B69134A43F080035361124BDB695E
:100710009847104B5B6903F48073002B08D00D4B96
:100720005B690C4A43F4807353610B4B1B6A984717
:10073000084B5B6903F40073002B08D0054B5B6921
:10074000044A43F400735361034B5B6A984700BF4C
:1007500080BD00BF000401403000002080B500AF24
:100760002D4B5B6903F48063002B08D02A4B5B6937
:10077000294A43F480635361284B9B6A9847264B70
:100780005B6903F40063002B08D0234B5B69224AAA
:1007900043F400635361214BDB6A98471E4B5B694E
:1007A00003F48053002B08D01B4B5B691A4A43F4B7
:1007B00080535361194B1B6B9847174B5B6903F4CC
:1007C0000053002B08D0144B5B69134A43F40053C9
:1007D0005361124B5B6B98470F4B5B6903F480438B
:1007E000002B08D00C4B5B690B4A43F480435361E8
:1007F0000A4B9B6B9847084B5B6903F40043002B43
:1008000008D0054B5B69044A43F400435361034B32
:10081000DB6B984700BF80BD000401403000002022
:1008200080B483B000AF0346FB80FB88802B42D0AE
:10083000802B11DC082B36D0082B06DC022B2ED0A7
:10084000042B2ED0012B28D047E0202B2FD0402B7B
:100850002FD0102B29D040E0B3F5006F33D0B3F583
:10086000006F09DCB3F5007F29D0B3F5806F28D085
:10087000B3F5807F21D030E0B3F5005F27D0B3F52A
:10088000005F03DCB3F5805F1FD026E0B3F5804F37
:100890001FD0B3F5004F1ED01FE000231EE004233D
:1008A0001CE008231AE00C2318E0102316E01423A0
:1008B00014E0182312E01C2310E000230EE00423B0
:1008C0000CE008230AE00C2308E0102306E01423C0
:1008D00004E0182302E01C2300E0002318460C3734
:1008E000BD4680BC704790B585B000AF7860396078
:1008F0000023FB730023BB603B681B88FF2B01D8E0
:100900007B6801E07B680433BB603B681B8818464A
:10091000FFF786FF03461A460F239340DA43BB686E
:100920001B681A40BB681A603B689B78042B0BD08D
:100930003B689B78052B07D03B689B78062B03D040
:100940003B689B78072B0ED13B689B78043B9B0050
:100950005AB23B68DB785BB213435BB2DBB203F0A5
:100960000F03FB732CE03B689B78002B03D03B68A4
:100970009B78012B07D13B689B789B00DBB203F08F
:100980000F03FB731CE03B689B78082B02D1042308
:10099000FB7315E00823FB733B689B78022B07D1A0
:1009A0007B68DB683A6812881A437B68DA6007E084
:1009B0007B68DB683A681288D2431A407B68DA6049
:1009C000FC7B3B681B881846FFF72AFF034604FAA6
:1009D00003F2BB681B681A43BB681A6000BF143778
:1009E000BD4690BD80B582B000AF044B1B685B690B
:1009F0003879984700BF0837BD4680BD24000020E5
:100A000080B582B000AF044B5B685B69387998476A
:100A100000BF0837BD4680BD2400002080B500AF70
:100A2000024B1B681B69984700BF80BD2C0000204B
:100A300080B500AF024B1B681B69984700BF80BDA3
:100A40002C00002080B500AF024B1B681B69984743
:100A500000BF80BD2C00002070B500250C4E0D4C51
:100A6000A41BA410A54209D100F01AF800250A4ED3
:100A70000A4CA41BA410A54205D170BD56F8253020
:100A800098470135EEE756F8253098470135F2E7EB
:100A9000C40A0008C40A0008C40A0008C80A0008FA
:100AA000F8B500BFF8BC08BC9E467047F8B500BF5B
:080AB000F8BC08BC9E4670472B
:0C0AB80009000000000C014000021700C3
:040AC40055010008D0
:040AC80031010008F0
:0400000508000221CC
:00000001FF
