:020000040800F2
:100000000028002059020008A9020008A9020008DF
:10001000A9020008A9020008A902000800000000C7
:10002000000000000000000000000000D3010008F4
:10003000A902000800000000A9020008A9020008A7
:10004000A9020008A9020008A9020008A9020008E4
:10005000A9020008A9020008AD020008D1020008A8
:10006000F5020008190300083D030008A902000872
:10007000A9020008A9020008A9020008A9020008B4
:10008000A9020008A9020008A9020008A9020008A4
:10009000A9020008A9020008A902000861030008DB
:1000A000A9020008A9020008A9020008A902000884
:1000B000A9020008A9020008A9020008A902000874
:1000C000A9020008A9020008A9020008CD0400083E
:1000D000E904000805050008190500082D050008B9
:1000E00009040008A902000800000000A902000895
:1000F000A9020008A9020008A9020008A902000834
:10010000A9020008A9020008A9020008A902000823
:10011000A9020008A9020008A9020008A902000813
:10012000A9020008A9020008A9020008A902000803
:1001300010B5054C237833B9044B13B10448AFF321
:1001400000800123237010BD00000020000000008B
:100150008805000808B5034B1BB103490348AFF3FA
:10016000008008BD00000000040000208805000891
:1001700080B485B000AF78607B6818331B68023BA1
:100180001B78FB737B681B68BB737B6804331B683D
:100190007B73FB7B022B0AD0032B0ED0012B00D0EC
:1001A00012E0BA7B7B7B1A447B681A600CE0BA7B56
:1001B0007B7BD21A7B681A6006E0BB7B7A7B02FBF2
:1001C00003F27B681A6000BF00BF1437BD4680BCD5
:1001D00070471EF0040F0CBFEFF30880EFF30980A7
:1001E000FFF7C6BF00BF80B487B000AFF860B9604A
:1001F0007A607B68022B05D0032B05D0012B05D13B
:1002000001DF03E002DF01E003DF00BF7B69184686
:100210001C37BD4680BC704780B582B000AF01225C
:1002200002210320FFF7DFFF786002220221032072
:10023000FFF7D9FF7860032202210320FFF7D3FFE5
:100240007860044B1B68002BFBD0024B00221A6025
:10025000F7E700BF1C0000200D488546AFF3008083
:100260000C480D490D4A002302E0D458C450043311
:10027000C4188C42F9D30A4A0A4C002301E01360E7
:100280000432A242FBD300F05BF9FFF7C5FFFEE7A3
:10029000002800200000002000000020A805000821
:1002A0000000002068000020FEE7000080B500AFDD
:1002B000054B5B69044A43F001035361034B1B6820
:1002C000984700BF80BD00BF000401402C00002003
:1002D00080B500AF054B5B69044A43F002035361EC
:1002E000034B5B68984700BF80BD00BF000401401E
:1002F0002C00002080B500AF054B5B69044A43F039
:1003000004035361034B9B68984700BF80BD00BF47
:10031000000401402C00002080B500AF054B5B6954
:10032000044A43F008035361034BDB68984700BF5E
:1003300080BD00BF000401402C00002080B500AF4C
:10034000054B5B69044A43F010035361034B1B697F
:10035000984700BF80BD00BF000401402C00002072
:1003600080B500AF264B5B6903F02003002B08D05B
:10037000234B5B69224A43F020035361214B5B69A5
:1003800098471F4B5B6903F04003002B08D01C4BC0
:100390005B691B4A43F0400353611A4B9B699847C2
:1003A000174B5B6903F08003002B08D0144B5B698B
:1003B000134A43F080035361124BDB699847104B9B
:1003C0005B6903F48073002B08D00D4B5B690C4A0A
:1003D00043F4807353610B4B1B6A9847084B5B696E
:1003E00003F40073002B08D0054B5B69044A43F407
:1003F00000735361034B5B6A984700BF80BD00BF29
:10040000000401402C00002080B500AF2D4B5B693B
:1004100003F48063002B08D02A4B5B69294A43F41C
:1004200080635361284B9B6A9847264B5B6903F4B2
:100430000063002B08D0234B5B69224A43F400631E
:100440005361214BDB6A98471E4B5B6903F4805371
:10045000002B08D01B4B5B691A4A43F4805353614D
:10046000194B1B6B9847174B5B6903F40053002B28
:1004700008D0144B5B69134A43F400535361124B89
:100480005B6B98470F4B5B6903F48043002B08D0EC
:100490000C4B5B690B4A43F4804353610A4B9B6BE3
:1004A0009847084B5B6903F40043002B08D0054BC9
:1004B0005B69044A43F400435361034BDB6B984789
:1004C00000BF80BD000401402C00002080B582B038
:1004D00000AF044B1B685B693879984700BF083749
:1004E000BD4680BD2000002080B582B000AF044B27
:1004F0005B685B693879984700BF0837BD4680BDA7
:100500002000002080B500AF024B1B681B69984794
:1005100000BF80BD2800002080B500AF024B1B68E3
:100520001B69984700BF80BD2800002080B500AF40
:10053000024B1B681B69984700BF80BD2800002044
:1005400070B500250C4E0D4CA41BA410A54209D17A
:1005500000F01AF800250A4E0A4CA41BA410A5426C
:1005600005D170BD56F8253098470135EEE756F8AD
:10057000253098470135F2E7A0050008A0050008DE
:10058000A0050008A4050008F8B500BFF8BC08BC29
:100590009E467047F8B500BFF8BC08BC9E46704741
:0405A00055010008F9
:0405A4003101000819
:040000050800025994
:00000001FF
